:020000040800F2
:1000000000000520156A00081124000813240008C8
:100010001524000817240008192400080000000017
:100020000000000000000000000000001B24000889
:100030001D240008000000001F24000821240008DF
:10004000656A0008656A0008656A0008656A000854
:10005000656A0008656A0008656A0008656A000844
:10006000656A0008656A0008656A0008656A000834
:10007000656A0008656A0008656A0008656A000824
:10008000656A0008656A0008656A0008656A000814
:10009000656A0008656A0008656A0008656A000804
:1000A000656A0008656A0008656A0008656A0008F4
:1000B000656A0008656A0008656A0008656A0008E4
:1000C000656A0008656A0008656A0008656A0008D4
:1000D000656A0008656A0008656A0008656A0008C4
:1000E000656A0008656A0008656A0008656A0008B4
:1000F000656A0008656A0008656A0008656A0008A4
:10010000656A0008656A0008656A0008656A000893
:10011000656A0008656A0008656A0008656A000883
:10012000656A0008656A0008656A0008656A000873
:10013000656A0008656A0008656A0008656A000863
:10014000656A0008656A0008656A0008656A000853
:10015000656A0008656A0008656A0008656A000843
:10016000656A0008656A0008656A0008656A000833
:10017000656A0008656A00080000000000000000D1
:10018000656A0008656A0008656A0008656A000813
:10019000656A0008656A000800000000656A0008DA
:1001A000656A0008656A00080000000000000000A1
:1001B000656A00080000000000000000656A000891
:1001C000656A0008656A0008656A0008656A0008D3
:0801D000656A0008656A000879
:1001E00010B5054C237833B9044B13B10448AFF371
:1001F00000800123237010BD70000020000000006B
:100200007479000808B5034B1BB103490348AFF3E9
:10021000008008BD00000000740000207479000810
:10022000034613F8012B002AFBD1181A0138704736
:1002300001F0FF01102A2BDB10F0070F08D010F897
:10024000013B013A8B422DD010F0070F42B3F6D19B
:10025000F0B441EA012141EA014122F007047FF0B4
:1002600000070023F0E80256083C85EA010586EA0B
:10027000010685FA47F5A3FA87F586FA47F6A5FA47
:1002800087F68EB9EED1F0BC01F0FF0102F0070253
:1002900032B110F8013B013A83EA010313B1F8D1FE
:1002A0000020704701387047002D06BF35460338DF
:1002B000073815F0010F07D1013015F4807F02BF18
:1002C000013015F4C03F0130F0BC0138704700BF69
:1002D00081F0004102E000BF83F0004330B54FEAF7
:1002E00041044FEA430594EA050F08BF90EA020F64
:1002F0001FBF54EA000C55EA020C7FEA645C7FEAF7
:10030000655C00F0E2804FEA5454D4EB5555B8BF19
:100310006D420CDD2C4480EA020281EA030382EA8A
:10032000000083EA010180EA020281EA0303362D1C
:1003300088BF30BD11F0004F4FEA01314FF4801CEF
:100340004CEA113102D0404261EB410113F0004F01
:100350004FEA03334CEA133302D0524263EB4303B8
:1003600094EA050F00F0A780A4F10104D5F1200E56
:100370000DDB02FA0EFC22FA05F2801841F10001B1
:1003800003FA0EF2801843FA05F359410EE0A5F185
:1003900020050EF1200E012A03FA0EFC28BF4CF0B6
:1003A000020C43FA05F3C01851EBE37101F000456C
:1003B00007D54FF0000EDCF1000C7EEB00006EEB79
:1003C0000101B1F5801F1BD3B1F5001F0CD3490803
:1003D0005FEA30004FEA3C0C04F101044FEA44525A
:1003E00012F5800F80F09A80BCF1004F08BF5FEAE1
:1003F000500C50F1000041EB045141EA050130BDC1
:100400005FEA4C0C404141EB010111F4801FA4F163
:100410000104E9D191F0000F04BF01460020B1FAB8
:1004200081F308BF2033A3F10B03B3F120020CDAF0
:100430000C3208DD02F1140CC2F10C0201FA0CF0CE
:1004400021FA02F10CE002F11402D8BFC2F1200C33
:1004500001FA02F120FA0CFCDCBF41EA0C019040E9
:10046000E41AA2BF01EB0451294330BD6FEA040432
:100470001F3C1CDA0C340EDC04F11404C4F120021D
:1004800020FA04F001FA02F340EA030021FA04F32F
:1004900045EA030130BDC4F10C04C4F1200220FA86
:1004A00002F001FA04F340EA0300294630BD21FAC4
:1004B00004F0294630BD94F0000F83F4801306BF8A
:1004C00081F480110134013D4EE77FEA645C18BF7E
:1004D0007FEA655C29D094EA050F08BF90EA020F15
:1004E00005D054EA000C04BF1946104630BD91EA0D
:1004F000030F1EBF0021002030BD5FEA545C05D110
:100500004000494128BF41F0004130BD14F580044E
:100510003CBF01F5801130BD01F0004545F0FE41C2
:1005200041F470014FF0000030BD7FEA645C1ABFF7
:10053000194610467FEA655C1CBF0B46024650EA2E
:10054000013406BF52EA033591EA030F41F400215A
:1005500030BD00BF90F0000F04BF0021704730B5E0
:100560004FF4806404F132044FF000054FF00001B5
:1005700050E700BF90F0000F04BF0021704730B576
:100580004FF4806404F1320410F0004548BF40424B
:100590004FF000013EE700BF42004FEAE2014FEAA0
:1005A00031014FEA02701FBF12F07F4393F07F4F7B
:1005B00081F06051704792F0000F14BF93F07F4FAD
:1005C000704730B54FF4607401F0004521F00041F0
:1005D00020E700BF50EA010208BF704730B54FF076
:1005E00000050AE050EA010208BF704730B511F07B
:1005F000004502D5404261EB41014FF4806404F1B3
:1006000032045FEA915C3FF4DCAE4FF003025FEA34
:10061000DC0C18BF03325FEADC0C18BF033202EBBC
:10062000DC02C2F1200300FA03FC20FA02F001FA16
:1006300003FE40EA0E0021FA02F11444C1E600BFB5
:1006400070B54FF0FF0C4CF4E06C1CEA11541DBF68
:100650001CEA135594EA0C0F95EA0C0F00F0DEF833
:100660002C4481EA030621EA4C5123EA4C5350EA18
:10067000013518BF52EA033541F4801143F4801369
:1006800038D0A0FB02CE4FF00005E1FB02E506F0FA
:100690000042E0FB03E54FF00006E1FB03569CF04F
:1006A000000F18BF4EF0010EA4F1FF04B6F5007F55
:1006B00064F5407404D25FEA4E0E6D4146EB0606C7
:1006C00042EAC62141EA55514FEAC52040EA5E5050
:1006D0004FEACE2EB4F1FD0C88BFBCF5E06F1ED8FA
:1006E000BEF1004F08BF5FEA500E50F1000041EB31
:1006F000045170BD06F0004646EA010140EA0200DE
:1007000081EA0301B4EB5C04C2BFD4EB0C0541EAFF
:10071000045170BD41F480114FF0000E013C00F314
:10072000AB8014F1360FDEBF002001F0004170BD38
:10073000C4F10004203C35DA0C341BDC04F1140451
:10074000C4F1200500FA05F320FA04F001FA05F2DD
:1007500040EA020001F0004221F0004110EBD370AA
:1007600021FA04F642EB06015EEA430E08BF20EAD6
:10077000D37070BDC4F10C04C4F1200500FA04F379
:1007800020FA05F001FA04F240EA020001F000410B
:1007900010EBD37041F100015EEA430E08BF20EA7E
:1007A000D37070BDC4F1200500FA05F24EEA020EC6
:1007B00020FA04F301FA05F243EA020321FA04F0F5
:1007C00001F0004121FA04F220EA020000EBD370AC
:1007D0005EEA430E08BF20EAD37070BD94F0000FAC
:1007E0000FD101F00046400041EB010111F4801FE0
:1007F00008BF013CF7D041EA060195F0000F18BF91
:10080000704703F00046520043EB030313F4801FCC
:1008100008BF013DF7D043EA0603704794EA0C0F86
:100820000CEA135518BF95EA0C0F0CD050EA41069C
:1008300018BF52EA4306D1D181EA030101F0004119
:100840004FF0000070BD50EA410606BF1046194641
:1008500052EA430619D094EA0C0F02D150EA01364D
:1008600013D195EA0C0F05D152EA03361CBF10468E
:1008700019460AD181EA030101F0004141F0FE412D
:1008800041F470014FF0000070BD41F0FE4141F4B1
:10089000780170BD70B54FF0FF0C4CF4E06C1CEAB1
:1008A00011541DBF1CEA135594EA0C0F95EA0C0F66
:1008B00000F0A7F8A4EB050481EA030E52EA033521
:1008C0004FEA013100F088804FEA03334FF0805542
:1008D00045EA131343EA12634FEA022245EA11156F
:1008E00045EA10654FEA00260EF000419D4208BF20
:1008F000964244F1FD0404F5407402D25B084FEACD
:100900003202B61A65EB03055B084FEA32024FF478
:1009100080104FF4002CB6EB020E75EB030E22BFD5
:10092000B61A754640EA0C005B084FEA3202B6EB95
:10093000020E75EB030E22BFB61A754640EA5C0044
:100940005B084FEA3202B6EB020E75EB030E22BFD4
:10095000B61A754640EA9C005B084FEA3202B6EBD5
:10096000020E75EB030E22BFB61A754640EADC0094
:1009700055EA060E18D04FEA051545EA16754FEAF6
:1009800006164FEAC30343EA52734FEAC2025FEA14
:100990001C1CC0D111F4801F0BD141EA00014FF0A3
:1009A00000004FF0004CB6E711F4801F04BF014374
:1009B0000020B4F1FD0C88BFBCF5E06F3FF6AFAE90
:1009C000B5EB030C04BFB6EB020C5FEA500C50F120
:1009D000000041EB045170BD0EF0004E4EEA1131A3
:1009E00014EB5C04C2BFD4EB0C0541EA045170BDAA
:1009F00041F480114FF0000E013C90E645EA060EEE
:100A00008DE60CEA135594EA0C0F08BF95EA0C0F1B
:100A10003FF43BAF94EA0C0F0AD150EA01347FF463
:100A200034AF95EA0C0F7FF425AF104619462CE73A
:100A300095EA0C0F06D152EA03353FF4FDAE10469D
:100A4000194622E750EA410618BF52EA43067FF4EE
:100A5000C5AE50EA41047FF40DAF52EA43057FF47E
:100A6000EBAE12E74FF0FF3C06E000BF4FF0010C89
:100A700002E000BF4FF0010C4DF804CD4FEA410CED
:100A80007FEA6C5C4FEA430C18BF7FEA6C5C1BD0BA
:100A900001B050EA410C0CBF52EA430C91EA030F3B
:100AA00002BF90EA020F0020704710F1000F91EA98
:100AB000030F58BF994208BF90422CBFD8176FEA66
:100AC000E37040F0010070474FEA410C7FEA6C5C34
:100AD00002D150EA013C07D14FEA430C7FEA6C5C3B
:100AE000D6D152EA033CD3D05DF8040B704700BF67
:100AF0008446104662468C461946634600E000BFB5
:100B000001B5FFF7B7FF002848BF10F1000F01BD86
:100B10004DF808EDFFF7F4FF0CBF012000205DF851
:100B200008FB00BF4DF808EDFFF7EAFF34BF0120D6
:100B300000205DF808FB00BF4DF808EDFFF7E0FF6F
:100B400094BF012000205DF808FB00BF4DF808EDC0
:100B5000FFF7CEFF94BF012000205DF808FB00BF27
:100B60004DF808EDFFF7C4FF34BF012000205DF809
:100B700008FB00BF4FEA410212F5001215D211D551
:100B80006FF47873B3EB625212D94FEAC12343F08A
:100B9000004343EA505311F0004F23FA02F018BF0C
:100BA000404270474FF00000704750EA013005D1D5
:100BB00011F0004008BF6FF0004070474FF0000098
:100BC000704700BF4A0011D212F5001211D20DD5A4
:100BD0006FF47873B3EB62520ED44FEAC12343F043
:100BE000004343EA505323FA02F070474FF00000ED
:100BF000704750EA013002D14FF0FF3070474FF09C
:100C00000000704753B94AB9002908BF00281CBF2B
:100C10004FF0FF314FF0FF3000F08EB9ADF1080C0E
:100C20006DE904CE00F01AF8DDF804E0DDE90223F6
:100C300004B07047430803F05533C01A830803F02B
:100C4000333300F03330184400EB101000F00F3055
:100C500000EB002000EB0040000E70472DE9F0474C
:100C60008C460D460446089E002B51D18A421746F9
:100C70006DD9B2FA82FEBEF1000F0BD0CEF1200C7E
:100C800001FA0EF520FA0CFC02FA0EF74CEA050CFC
:100C900000FA0EF44FEA174A250CBCFBFAF81FFACB
:100CA00087F90AFB18CC45EA0C4508FB09F3AB426F
:100CB0000AD9ED1908F1FF3280F02381AB4240F2EE
:100CC0002081A8F102083D44ED1AA4B2B5FBFAF068
:100CD0000AFB105544EA054400FB09F9A14509D96E
:100CE000E41900F1FF3380F00A81A14540F2078149
:100CF00002383C44A4EB090440EA08400021002EDD
:100D000061D024FA0EF4002334607360BDE8F087EC
:100D10008B4207D9002E54D0002186E821000846D6
:100D2000BDE8F087B3FA83F1002940F08E80AB4232
:100D300002D3824200F2FA80841A65EB0305012097
:100D4000AC46002E3FD086E81010BDE8F08712B9FF
:100D50000127B7FBF2F7B7FA87FEBEF1000F34D1D7
:100D6000EB1B3A0C1FFA87FC0121B3FBF2F8250CB0
:100D700002FB183345EA03450CFB08F3AB4207D9E5
:100D8000ED1908F1FF3002D2AB4200F2D18080466B
:100D9000ED1AA3B2B5FBF2F002FB105543EA05448D
:100DA0000CFB00FCA44507D9E41900F1FF3302D283
:100DB000A44500F2B8801846A4EB0C0440EA0840B1
:100DC0009DE731463046BDE8F087CEF1200405FAB4
:100DD0000EF307FA0EF720FA04F83A0C25FA04F499
:100DE00048EA0308B4FBF2F14FEA184502FB11444C
:100DF0001FFA87FC45EA044501FB0CF3AB4200FAFD
:100E00000EF409D9ED1901F1FF3080F08A80AB4270
:100E100040F2878002393D44EB1A1FFA88F5B3FB94
:100E2000F2F002FB103345EA034500FB0CF3AB4242
:100E300007D9ED1900F1FF386FD2AB426DD90238F6
:100E40003D44EB1A40EA01418FE7C1F1200722FA45
:100E500007F88B4005FA01F448EA030320FA07FE7D
:100E60004FEA134CFD404EEA040EB5FBFCF94FEA85
:100E70001E440CFB19551FFA83F844EA054509FB8B
:100E800008F4AC4202FA01F200FA01FA08D9ED18AE
:100E900009F1FF3043D2AC4241D9A9F102091D4406
:100EA0002D1B1FFA8EFEB5FBFCF00CFB10554EEA15
:100EB000054400FB08F8A04507D9E41800F1FF3508
:100EC00029D2A04527D902381C4440EA0940A4EBA6
:100ED0000804A0FB02894C45C6464D4615D312D0E6
:100EE00056B1BAEB0E0364EB050404FA07F7CB40E6
:100EF0001F43CC40376074600021BDE8F08718467E
:100F0000F8E69046E0E6C245EAD2B8EB020E69EB9D
:100F100003050138E4E72846D7E7404691E78146D4
:100F2000BEE7014678E702383C4445E7084608E753
:100F3000A8F102083D442BE7704700BF38B50E4AC0
:100F40000E4B054618784FF47A73B3FBF0F3106834
:100F5000B0FBF3F000F09CF8044658B90F2D09D807
:100F6000024629464FF0FF3000F05EF8044B204661
:100F70001D6038BD012038BD0800002000000020A1
:100F80000400002008B50B4B1A6842F400721A6086
:100F90001A6842F480621A601A6842F480721A6019
:100FA000032000F02FF80020FFF7C8FF01F014FA2B
:100FB000002008BD003C0240034A044B11681B7826
:100FC0000B441360704700BFAC30002000000020CD
:100FD000014B1868704700BFAC30002038B504469C
:100FE000FFF7F6FF631C1CBF054B1B78054618BFB7
:100FF000E418FFF7EDFF401B8442FAD838BD00BF6C
:1010000000000020074AD36823F4E0631B041B0C94
:1010100043F0BF63000243F4003300F4E060034395
:10102000D360704700ED00E0174B30B5DC68C4F3C7
:101030000224C4F10703251D042B28BF0423062D19
:101040004FF0010505FA03F303F1FF338CBF033CB6
:1010500000241940A14005FA04F4013C2240002874
:1010600042EA01024FEA0212ADBF00F1604000F017
:101070000F00064B00F56140B5BFD2B2D2B21A5490
:1010800080F8002330BD00BF00ED00E014ED00E06B
:101090000138B0F1807F0AD2064B074A5860F02130
:1010A00082F823100020072298601A607047012000
:1010B000704700BF10E000E000ED00E070B50446AE
:1010C000856DFFF785FF94F83530022B064606D074
:1010D00080236365002384F83430012070BD2368C9
:1010E0001A6822F016021A605A6922F080025A61C8
:1010F000226C0AB9A26C1AB11A6822F008021A60AE
:101100001A6822F001021A602368186810F00100C2
:1011100009D1E26D3F239340AB60012384F8340092
:1011200084F8353070BDFFF753FF801B0528EBD9DD
:10113000202363650320002384F8343084F83500CD
:1011400070BD00002DE9F04F85B00B68DFF8A0817D
:10115000654ADFF8A091019300230124019D9C4082
:101160002540AC4240F0AC804C6824F0100C0CF1EF
:10117000FF36012E4FEA430E12D88768032606FA7F
:101180000EF627EA0607CE6806FA0EF63E4386609C
:101190004768C4F3001627EA05079E403E434660B1
:1011A0000326C76806FA0EF6F64307EA060A8F68B2
:1011B00007FA0EF747EA0A07BCF1020FC76016D11B
:1011C0004FEAD30A00EB8A0A03F0070BDAF8207023
:1011D0004FEA8B0B4FF00F0C0CFA0BFC27EA0C0CB0
:1011E0000F6907FA0BF747EA0C07CAF8207007687F
:1011F0003E4004F0030707FA0EFE4EEA06060660BC
:10120000E6005DD54FF0000BCDF80CB0D8F8447077
:10121000364E47F48047C8F84470D8F8447007F455
:1012200080470397039F23F0030707F1804707F5E3
:101230009C3703F0030CD7F808A04FEA8C0C4FF052
:101240000F0E0EFA0CFEB0422AEA0E0E3FD006F543
:101250008066B0423DD006F58066B0423BD006F5D0
:101260008066B04239D006F58066B04237D0484536
:1012700037D006F50066B04214BF0726062606FAE8
:101280000CF646EA0E06BE601668EF4314F4803F83
:101290000CBF3E402E431660566814F4003F0CBF4E
:1012A0003E402E435660966814F4801F0CBF3E40AB
:1012B0002E439660D668A40254BF3E402E43D660AB
:1012C0000133102B7FF449AF05B0BDE8F08F5E46C7
:1012D000D5E70126D3E70226D1E70326CFE7042688
:1012E000CDE70526CBE700BF003C014000000240EF
:1012F00000380240001402402DE9F0430446486AD9
:1013000038B1B2F1406F1FBF8B6A256803F1FF331C
:101310002B6101F1180393E80803002B4FD02468D8
:10132000D1F82CC0D1F830E04F6B0E684D69034303
:10133000B9F1000F23D08868E0611343086943EADC
:101340000903B8F1000F0ED043EA080343EA0C0387
:1013500043EA0E033B430343C8680343334343EA72
:10136000854363611DE043EA0C0343EA0E033B43FC
:101370000343334343EA85436361BDE8F083B8F137
:10138000000F15D043EA020040EA080040EA0C00D2
:10139000CB6840EA0E0038431843304340EA8540AA
:1013A0006061B2F1406FE8D04B68A361BDE8F083A3
:1013B000134343EA0C0343EA0E033B43D9E7B9F175
:1013C000000F1AD024688B68E36140EA0903D1F862
:1013D0002CC0D1F830E04F6B0E694D691343B8F162
:1013E000000FE6D043EA080040EA0C0343EA0E038C
:1013F0003B43C86833430343B1E7B8F1000F0FD054
:1014000040EA0803C86A246813430343086B034394
:10141000486B0343C8680343486943EA8043A0E735
:101420000028AAD0CB6A2468034313430A6B1343F2
:101430004A6B13434A6943EA82439DE72DE9F04131
:10144000069D04460F461646984621688A683A4229
:1014500014BF01220022B24202D10020BDE8F08177
:101460006B1CF3D0FFF7B4FDA0EB0800854201D35D
:10147000002DEAD1042384F84130636C43F001036A
:1014800063640120BDE8F08137B50446FFF7A0FD95
:101490000546002C46D094F8412002F0FF033AB9EB
:1014A00084F84030204600F029FF41F28833A364DD
:1014B0002068A1680268A36C013922F4F85242EA5C
:1014C000012202602021009300222B462046FFF7D4
:1014D000B5FF10BBE569E36822682B43256A1168F4
:1014E0002B43656821F07F4143EA056321F0D00179
:1014F0000B431360A169636955680B43216943EA93
:101500000143094929400B435360136843F0010329
:1015100013600123606484F84130002384F8403074
:1015200003B030BD0120FBE7FEF8E0FF2DE9F347F3
:1015300004468A469146FFF74BFD94F84030012B54
:10154000804635D0012384F8403094F84160F6B2EB
:101550009E424FF0020729D100226264034684F8BC
:101560004170CDF8009020212046FFF767FF054627
:10157000A8B9024651462046FFF7BEFEDAF82430ED
:101580005BB9CDF800904346324639462046FFF716
:1015900055FF054618B92368DF6084F841600023D1
:1015A00084F84030284602B0BDE8F0873D46F6E7B3
:1015B0000225F7E737B50446FFF70AFD054694F81C
:1015C000410010F0020034D0002384F8403023683A
:1015D0001A6852070BD51A68E06B22F004021A60F1
:1015E000FFF76CFD18B1636C43F004036364226879
:1015F000136843F002031360A36C009301222B468F
:1016000002212046FFF71AFF98B923680222DA6008
:10161000A36C009302462B4620212046FFF70EFFC5
:1016200038B92268536923F040635361012384F879
:10163000413003B030BD2DE9F341044688461746DA
:10164000FFF7C6FC94F84030012B064650D001232A
:1016500084F8403094F841002568C0B2984245D1E2
:1016600000236364B8F1000F3BD0122384F84130AB
:101670002B690133E3622B69C4F824800133A36230
:101680006B6923F040636B61E36AB3B9009733463B
:10169000012202212046FFF7D1FE28B92368022249
:1016A000DA602046FFF786FF012384F841300023EB
:1016B00084F8403002B0BDE8F08100973346012243
:1016C00004212046FFF7BAFE0028EDD1636A1B789B
:1016D00085F82030636A01336362E36A013BE362A9
:1016E000D2E7636C43F008036364E0E70220DEE7BF
:1016F0000220DFE72DE9F341044617468846FFF74D
:1017000067FC2568AA6994F84030012B064652D040
:10171000012384F8403094F84100C0B2984248D187
:1017200000236364B8F1000F3ED0222384F84130D7
:101730002B690133A3632B69C4F8308001336363E1
:101740006B6923F0406343F080636B61AA61A36B14
:10175000B3B900973346012202212046FFF76EFEFF
:1017600028B923680222DA602046FFF723FF01230D
:1017700084F84130002384F8403002B0BDE8F081A5
:1017800000973346012206212046FFF757FE002826
:10179000EDD1236B95F820201A70236B013323635E
:1017A000A36B013BA363D2E7636C43F0080363645C
:1017B000E0E70220DEE70220DFE70000134908B57A
:1017C0008B6803F00C03042B03D0082B03D01048C4
:1017D00008BD104808BD4A684B68496813F4800387
:1017E00014BF0C480A48C1F3881118BF002302F047
:1017F0003F02A1FB0001FFF705FA044B5B68C3F34E
:10180000014301335B00B0FBF3F008BD0038024038
:101810000024F40040787D012DE9F0410D46044696
:1018200010B90120BDE8F081444B1A6802F00F02A4
:101830008A4229D321688F072ED4C80741D43F4B51
:101840001A6802F00F02954267D3226851076DD4DF
:10185000130707D53A4A2169936823F4604343EAA2
:10186000C1039360FFF7AAFF354B364A9B68C3F369
:101870000313D35CD840344B1860344B1868FFF71F
:101880005DFB0020BDE8F081CAB21A701B6803F04E
:101890000F039942C5D1CDE7294B11F0040F1EBFAC
:1018A0009A6842F4E0529A600E0742BF9A6842F486
:1018B00060429A609A68A06822F0F00202439A603F
:1018C000BBE762681E4B012A1DD11B6813F4003F61
:1018D000A7D01B4EB36823F003031343B360FFF795
:1018E00077FB41F288380746B368626803F00C035F
:1018F000B3EB820FA3D0FFF76BFBC01B4045F3D9BE
:101900000320BDE8F081911E01291B6802D813F065
:10191000007FDDE713F0020FDAE7EAB21A701B6806
:1019200003F00F039D427FF47CAF8EE70449E0682B
:101930008B6823F4E05303438B6089E7003C02404B
:1019400000380240C87C0008080000200400002085
:10195000044B054A9B68C3F38223D35C034A106897
:10196000D840704700380240D87C000808000020AA
:10197000044B054A9B68C3F34233D35C034A1068A7
:10198000D840704700380240D87C0008080000208A
:1019900003682DE9F341DD07044610D42368980756
:1019A0005BD423681A0700F19D8023685B0700F170
:1019B000BB80A269002A40F01C81002015E0A74BE3
:1019C0009A6802F00C02042A07D09A6802F00C020E
:1019D000082A0DD15B6859020AD5A04B1B689A03EF
:1019E000DCD56368002BD9D1012002B0BDE8F081BD
:1019F00063689A4DB3F5803F11D12B6843F480336F
:101A00002B60FFF7E5FA954D06462B689B03C5D47E
:101A1000FFF7DEFA801B6428F7D90320E5E7B3F56A
:101A2000A02F04D12B6843F480232B60E5E72A68BC
:101A300022F480322A602A6822F480222A60002B55
:101A4000DFD1FFF7C5FA06462B689F03A6D5FFF73F
:101A5000BFFA801B6428F7D9DFE7804B9A6812F041
:101A60000C0F07D09A6802F00C02082A11D15B68AB
:101A70005E020ED4794B1A68950702D5E268012AF6
:101A8000B2D11A68216922F0F80242EAC1021A6052
:101A900087E7E268724BB2B101221A60FFF798FA49
:101AA0006E4D06462B68980707D52B68226923F0F0
:101AB000F80343EAC2032B6073E7FFF789FA801B40
:101AC0000228EFD9A9E71A60FFF782FA634D0646AC
:101AD0002B6899077FF565AFFFF77AFA801B02281C
:101AE000F6D99AE762695F4B7AB101221A60FFF773
:101AF0006FFA5A4D06466B6F9F073FF556AFFFF7DB
:101B000067FA801B0228F6D987E71A60FFF760FAA8
:101B1000524D06466B6F98077FF547AFFFF758FAAF
:101B2000801B0228F6D978E74C4B1A6C12F08052D1
:101B300028D101921A6C42F080521A641B6C03F097
:101B400080530193019B0126474D2B68D9051BD576
:101B5000A368424D012B27D12B6F43F001032B6764
:101B6000FFF736FA3D4D074641F288382B6F9B0749
:101B700039D5002E3FF41DAF384A136C23F0805343
:101B8000136416E70026DFE72B6843F480732B60AD
:101B9000FFF71EFA07462B68DA05D9D4FFF718FAC3
:101BA000C01B0228F7D938E7052B04D12B6F43F06F
:101BB00004032B67D0E72A6F22F001022A672A6FFD
:101BC00022F004022A67002BCAD1FFF701FA41F282
:101BD000883807462B6F9807CBD5FFF7F9F9C01B5C
:101BE0004045F7D919E7FFF7F3F9C01B4045BDD9C8
:101BF00013E71A4DAB6803F00C03082B3FF4F4AE67
:101C00001A4E0023022A336038D1FFF7E1F9074664
:101C10002B6899012CD4226AE3691343626A43EA70
:101C20008213E26A43EA0263226B43EA0273A26A06
:101C30000A4C5208013A43EA02436B6001233360C5
:101C4000FFF7C6F9054623689A013FF5B6AEFFF7E0
:101C5000BFF9401B0228F6D9DFE600BF003802407A
:101C600000004742800E474200700040600047423B
:101C7000FFF7AEF9C01B0228CAD9CEE6FFF7A8F9D4
:101C800004462B689B017FF598AEFFF7A1F9001B76
:101C90000228F6D9C1E600BF38B50368C1681A69E1
:101CA000044622F440520A431A612569A268D968A1
:101CB000C0692A43656921F416412A4321F00C01C9
:101CC00002430A43DA605A69A16922F440720A4366
:101CD000B0F5004F5A612D4A31D193420BD002F535
:101CE0008062934207D002F58062934203D002F5EE
:101CF0008062934220D1FFF73BFE6268256892180C
:101D00004FF000034FF019015B41A0FB0101FEF70A
:101D100079FF6421B0FBF1F401FB1403DB003233E3
:101D2000B3FBF1F303F007025B0002EB041203F4D0
:101D3000F8731344AB6038BDFFF70AFEDDE793424A
:101D40000AD0134A934207D002F58062934203D02F
:101D500002F58062934216D1FFF70AFE6368256898
:101D600019219A00A0FB01019B0FFEF74BFF642293
:101D7000B0FBF2F102FB11031B013233B3FBF2F3B0
:101D800003EB0113D6E7FFF7E3FDE7E7001001409F
:101D900000140140F8B504460E4617461D4621685A
:101DA0000B6836EA030301D10020F8BD6B1CF7D0A5
:101DB00095B92368DA6822F4D072DA605A6922F0A1
:101DC00001025A61202384F8393084F83A30002324
:101DD00084F838300320F8BDFFF7FAF8C01B8542BD
:101DE000DDD2E6E710B5044640B390F8393003F091
:101DF000FF021BB980F8382000F080FB2268242302
:101E000084F83930D36823F40053D3602046FFF7B9
:101E100043FF23681A6922F490421A615A6922F03A
:101E20002A025A61DA6842F40052DA600020202364
:101E3000E06384F8393084F83A3010BD012010BDD9
:101E40002DE9F8431F4690F83930202B04460D4603
:101E5000904651D100294CD0002A4AD090F8383011
:101E6000012B49D0012380F838304FF0000921239D
:101E7000C0F83C9080F83930FFF7AAF8A4F8248025
:101E80000646A4F8268084F83890E38C9BB25BB9B0
:101E90003B46324640212046FFF77CFFA0B9202375
:101EA00084F83930BDE8F883E38C013B9BB2E384CE
:101EB000A368B3F5805F32463B464FF08001204671
:101EC0000ED1FFF767FF10B10320BDE8F8832B8820
:101ED0002268C3F308035360236943B90235D4E78A
:101EE000FFF758FF0028EFD123682A785A600135A0
:101EF000CBE70120BDE8F8830220BDE8F8830000AD
:101F000084B0114B00220192196B41F00101196359
:101F1000196B01F00101019101990292196B41F0D5
:101F200004011963196B01F00401029102990392F3
:101F30001A6B42F002021A631B6B03F00203039355
:101F4000039B04B0704700BF003802400020704778
:101F500038B50A4C1D46236801332360C469049BCD
:101F6000074804FB0124224600F038FC049A294665
:101F7000204600F02FFB002038BD00BF9830002025
:101F8000A37C0008F7B515461B4A089C1E4613683B
:101F900001331360C26900944A432B46174857190E
:101FA00000F01CFC164800F019FC00F0F3FA0A20BF
:101FB000FFF714F800F0B2FB22463146384600F035
:101FC00045FB04460F4800F009FC00F0A7FBC307DF
:101FD0000ED40D4800F002FC002C0CBF00246FF062
:101FE00053042146094800F0F9FB204603B0F0BD38
:101FF0000A20FEF7F3FFE8E794300020347C000865
:10200000687C0008867C00087C7C00088E7C0008C8
:10201000104A10B51368C4690F484C43013313606C
:10202000224600F0DBFB0D4800F0D8FB00F0B2FACE
:102030000A20FEF7D3FF00F071FB204600F046FBBC
:1020400000F06CFB10F0010000D110BD0A20FEF77B
:10205000C5FFF5E78C000020037C0008207C000809
:1020600010B594B03422002107A804F051FD0021DE
:10207000142202A804F04CFD0024164B00941A6CA4
:1020800042F080521A641B6C03F080530093009B53
:10209000114B01941A6842F440421A601B680D9477
:1020A00003F440430193019B0223079301230A9306
:1020B00007A810230B93FFF76BFC0F23214602A800
:1020C00002930394049405940694FFF7A5FB14B0BF
:1020D00010BD00BF003802400070004007B5FEF799
:1020E00051FFFFF7BDFFFFF70BFF00F0E9F800F02D
:1020F000E9F9554800F05CFB00F060FB534800F044
:102100006DFB4FF47A70FEF769FF514800F066FBF3
:102110005049514802F016FD014670B14F4800F099
:102120005DFB4C494C4804F071FB4A494A4802F0B7
:1021300009FD01464A4800F051FB4A4800F04EFBB9
:1021400000238DF807304849484A434840F20313BA
:1021500004F02AFB011E02DA454800F03FFB424929
:102160003D4801230DF1070203F078FA011E60DA01
:10217000404800F033FB3C49374802F06BFC011E3D
:10218000B4BF3D483D4800F029FB9DF807103C488E
:102190000131C9B28DF8071000F020FB32492E48FA
:1021A00003F07AFB011E4BDA364800F017FB2E498C
:1021B000294802F04FFC011EB4BF2F482F4800F001
:1021C0000DFB0DF1070201232749234802F0D0FF40
:1021D000011EB4BF2C482D4800F000FB22491E48C8
:1021E00002F058FC011EB4BF29482A4800F0F6FA54
:1021F0001D49194804F048F90146274800F0EEFA55
:102200009DF807101E4800F0E9FA134802F076FC2A
:10221000224B2348196800F0E1FA224B2248196842
:1022200000F0DCFA214B2248196800F0D7FA00BF11
:10223000FEE7204800F0D2FA9DF80710104898E712
:102240001D4800F0CBFAB2E7C8310020E079000861
:10225000F979000898790008043100200C7A000808
:102260001F7A0008397A0008B0300020547A00083C
:102270005F7A00087D7A0008B97A0008E57A0008DC
:10228000AA7A0008FF7A0008297B0008477B00082B
:10229000677B0008927B0008A07B00089830002034
:1022A000B17B000894300020CB7B00088C0000201C
:1022B000E87B00089B7A00081F7B0008704700003D
:1022C0000C480D4A08B54FF0040CFF2380E80C10B1
:1022D0001722002302610122C36043618261C3614E
:1022E0000362FFF7D1F818B1BDE80840FFF7E6BF79
:1022F00008BD00BF7C310020001000A0F0B5142202
:102300008BB0044600210DEB020004F001FC2268B2
:102310002C4B9A4254D12C4B2C48002401949A6B9C
:1023200042F002029A639A6B02F002020192019A51
:1023300002941A6B42F001021A631A6B02F0010256
:102340000292029A03941A6B42F002021A631A6B09
:1023500002F002020392039A04941A6B42F0040200
:102360001A631B6B03F00403022503260927049359
:1023700005A9049B0595069508960997FEF7E2FEC8
:10238000042305A912480593069507940896099712
:10239000FEF7D8FE4FF4E06305A90E4805930695B5
:1023A000079408960997FEF7CDFE4023059305A9EB
:1023B0000A2307480695079408960993FEF7C2FE7C
:1023C0000BB0F0BD001000A0003802400000024039
:1023D000000402400008024082B00C4B0021009132
:1023E0005A6C42F480425A645A6C02F48042009261
:1023F000009A01911A6C42F080521A641B6C03F02F
:1024000080530193019B02B0704700BF0038024027
:102410007047FEE7FEE7FEE7FEE77047704770474C
:10242000FEF7CABD70B50E4615460C46A31B9D426D
:1024300001DC284670BDAFF3008004F8010BF5E71E
:1024400070B50E4615460C46A31B9D4201DC28467E
:1024500070BD14F8010BAFF30080F5E708B50A4B27
:102460001968024609B909491960186869460244A1
:102470008A4206D904F0F8FA0C2303604FF0FF30CB
:1024800008BD1A6008BD00BF9C3000200C3200203F
:102490004FF0FF3070474FF400534B6000207047FF
:1024A0000120704700207047054BD3F8882042F484
:1024B0007002C3F888204FF000629A60704700BF36
:1024C00000ED00E008B50B480B4B4FF4E13E80E80F
:1024D00008400C2200238360C36003614261836172
:1024E000C361FFF77FFC18B1BDE80840FFF7E6BE07
:1024F00008BD00BFC831002000480040F0B50446C8
:1025000089B01422002103A804F002FB22681E4BAC
:102510009A4237D103F5F833002400941A6C1B4813
:1025200042F480221A641A6C02F480220092009A0B
:1025300001941A6B42F004021A631A6B02F004024F
:102540000192019A02941A6B42F002021A631B6B09
:1025500003F002030293029B022720230326072590
:1025600003A90393049706960795FEF7EBFD4FF436
:10257000806303A90648039304970594069607957C
:10258000FEF7E0FD09B0F0BD004800400008024041
:102590000004024010B58EB038220021684604F0D5
:1025A000B7FA062300934FF47A724FF480736946AA
:1025B00006480693FEF7BAFF044618B101460448E0
:1025C00000F00CF920460EB010BD00BF7C31002099
:1025D0006B7D000870B58EB01446064638220D4655
:1025E0006846002104F094FA03238DE848004FF474
:1025F000005303934FF4807306934FF48063079363
:102600004FF47A724FF0807369460D480A9409932B
:10261000FEF78CFF044630B101460A4800F0DEF8B0
:1026200020460EB070BD41F2883229460448FFF7BB
:1026300061F804460028F3D001460348EEE700BFE6
:102640007C3100206B7D0008087D000870B5B2F574
:10265000807F8EB006460D46144602D900200EB08B
:1026600070BD38220021684604F052FA02238DE83A
:1026700048004FF4005303934FF4807306934FF4D4
:10268000806307934FF47A724FF0807369460C4869
:102690000A940993FEF74AFF044628B10146094807
:1026A00000F09CF82046DAE741F2883229460448D7
:1026B000FEF7C1FF04460028D0D001460248EFE7EC
:1026C0007C3100206B7D0008E07C000810B58EB0E6
:1026D000044638220021684604F01AFA20238DE8C7
:1026E00018004FF4005303934FF4807306934FF494
:1026F0007A724FF48063694606480793FEF716FF27
:10270000044618B10146044800F068F820460EB0AF
:1027100010BD00BF7C3100206B7D000800B591B07A
:102720000021382202A88DF8041004F0F1F90523E5
:1027300002934FF4807308934FF080730B9302A9B8
:1027400001234FF47A720E480C93FEF7EFFE014618
:1027500098B901A94FF47A720948FEF7CBFF0146F8
:1027600038B1084800F03AF89DF8040011B05DF85F
:1027700004FB9DF804100448F4E70448F2E700BFA6
:102780007C3100202C7D00085D7D00086B7D0008F9
:1027900007B502A9FA2301F8010D044801220068D7
:1027A000FFF74EFB03B05DF804FB00BFA030002034
:1027B000014B1860704700BFA030002007B50648E5
:1027C00002A90C2301F8013D0122FA230068FFF75A
:1027D00037FB03B05DF804FBA03000200FB407B551
:1027E00004A951F8040B019100F044FF0548064983
:1027F0000068FA230222FFF723FB03B05DF804EB25
:1028000004B07047A03000209C7D000870472DE97F
:10281000F84F1F460D9BDDF82880DDF82C900E4602
:1028200099070546144606D1A9EB020A0C990AEB52
:102830000203994212D808EB090A9144A9EB0A0253
:10284000C245424412D10D9B9B0704D50C9AA9EBBB
:1028500004039A4210D84846BDE8F88F02F1010BF4
:102860003B4631462020A8475A46DFE73B463146E3
:102870001AF8010DA847E1E74A4609F101083B466D
:1028800031462020A847C146E0E72DE9F04F0F9ED2
:10289000099D0A9C9DF82CC0DDF830E0DDF83480FD
:1028A0000E9F16F0020F1DD14FB116F0010F06D08A
:1028B000BCF1000F02D116F00C0F00D0013F05EB68
:1028C00004094FF0300A444541D305EB040906F0F2
:1028D000010A4FF0300BBAF1000F03D0BC4201D215
:1028E0001F2C3AD916F0100F1FD016F4806F39D173
:1028F000C4B3444501D0BC4234D1B4F1010830D056
:10290000BEF1100F3ED1023C16F0200F35D11F2C26
:1029100015D84FF0780E05F804E001341F2C0ED8BE
:102920004FF0300E05F804E001341F2C07D8BCF13D
:10293000000F29D04FF02D0E05F804E001340C965D
:102940000B970A940995BDE8F04FFFF760BF1F2C65
:10295000BBD8013409F801ABB5E7013409F801BB74
:10296000B9E74446BEF1100FCED0BEF1020FD5D16B
:102970001F2CE4D84FF0620ECDE71F2CDFD84FF0AC
:10298000580EC8E74446F0E716F0040F02D04FF0A7
:102990002B0ED1E716F0080FD1D04FF0200ECBE769
:1029A0002DE9F04190B0169DDDF860E01B9F0DB958
:1029B00027F010077C0500D585B317F0200F4FF0E6
:1029C000000614BF4FF0370C4FF0570CB5FBFEF468
:1029D0000EFB1454E4B2092C06F101060DF1200897
:1029E00094BF30346444B044E4B208F8014CB5FB01
:1029F000FEF50DB1202EE9D11A9C0594199C049482
:102A00009DF85C40029408AC0697CDF80CE0019666
:102A10000094FFF73AFF10B0BDE8F0812E46EBE7D7
:102A20002DE9F04F95B0DDE91E89269D09909B4662
:102A300058EA090308BF25F0100592466A050A9175
:102A4000229E239F02D558EA09033DD015F0200F9E
:102A500014BF3723572300240B9340464946324680
:102A60003B46FEF7CFF8D2B2092A88BF0B9B04F190
:102A7000010488BFD2180CAB98BF30322344D2B2C5
:102A800003F8012C40463B4649463246FEF7BAF869
:102A90008046894658EA090301D0202CDDD1259BC8
:102AA0000593249B04939DF8803002930CAB009314
:102AB0000695039601945B4652460A990998FFF7DA
:102AC000E4FE15B0BDE8F08F0024E8E708B1FFF799
:102AD0005FBE7047000000002DE9F04F97B09246AE
:102AE0009B46DDE920230790089110461946DDF842
:102AF0008890239F249EFEF70BF860B9032301936F
:102B0000A74B03960297009352465B460899079895
:102B1000FFF77DFE42E04FF0FF326FF48013DDE9F6
:102B20002001FDF7FFFF28B10423019303960297CC
:102B30009C4BE8E74FF0FF329B4BDDE92001FEF7AD
:102B40000FF868B1994A039606F00403002B08BFFA
:102B50000322974B02971CBF134604220192D2E72F
:102B60008BA3D3E90023DDE92001FDF7F9FF38B994
:102B700089A3D3E90023DDE92001FDF7D3FF80B16C
:102B80009DED207B04960397CDF808908DED007B9A
:102B90005B4652460899079800F012F917B0BDE855
:102BA000F08F00220023DDE92001FDF7BBFF0028A4
:102BB00076D0DDE9202300200021FDF78DFBCDE953
:102BC00020010123099316F4806F08BF4FF0060916
:102BD00000230EAA3021B9F1090F1C4606D9D154A1
:102BE000631C202B09F1FF39F5D11C46DDE92001DA
:102BF000FDF7C0FF6F4B03EBC90393ED007B054668
:102C00008DED0A7BFDF7B6FC02460B46DDE920019F
:102C1000FDF762FBDDE90A23FDF712FDCDE90C01AA
:102C2000FDF7D0FF8046FDF795FC02460B46DDE937
:102C30000C01FDF751FB00225F4BCDE90C01FDF7C4
:102C40008FFF78B308F101084046FDF783FC024688
:102C50000B46DDE90A01FDF76FFF10B101354FF0BA
:102C60000008B9F1000F4BD12846FDF783FC02465E
:102C70000B46DDE92001FDF72FFB00224E4B80467D
:102C80008946FDF74FFF30B100224B4B4046494685
:102C9000FDF766FF10B1E80700D501350A2358E0BB
:102CA000099090E70022444BDDE90C01FDF73AFF63
:102CB0000028D6D1B8F1000F02D018F0010FD0D003
:102CC00008F10108CDE70134B8FBF3F1101903FB5B
:102CD000118808F1300800F8018C09F1FF398846A5
:102CE00081B9A1443021202C0ED0A14504F101036B
:102CF0001FD116AA14442E2204F8202C1C46CDE71E
:102D00000EAA0A23202CDED106F00303012B0EAB02
:102D100025D127B3099A12B916F00C0F00D0013F44
:102D20003022A7421BD91F2C16D903960297019473
:102D3000E9E611551C46D6E70EAA0134111995FB98
:102D4000F3F203FB1255303501F8015C1546002AF9
:102D5000DAD01F2CF0D9D7E71A550134E1E71F2C40
:102D6000E3D8099A32B116AA22442D2102F8201C78
:102D70000134DAE7710703D516AA22442B21F5E7BF
:102D80003207D2D516AA22442021EFE7AFF3008004
:102D90000000000065CDCD410000000065CDCDC133
:102DA000A87D0008AC7D0008FFFFEF7F9F7D000835
:102DB000A47D0008B87D00080000E03F000000008E
:102DC0002DE9F04F93B09DED1C7B9B461F9B0D9210
:102DD0000C9353EC172B0890099117EE100A194623
:102DE0008DED067B1E9DDDF880A0FDF791FE80B184
:102DF0004FF0FF32104BDDE90601FDF7B1FE40B99F
:102E00004FF0FF326FF48013DDE90601FDF78AFE13
:102E1000A0B19DED067B0C9B0D9A099908981F9314
:102E20005B46CDF880A01E958DED1C7B13B0BDE8F0
:102E3000F04FFFF751BE00BFFFFFEF7F00220023DE
:102E4000DDE90601FDF76EFE002800F03A81079BE0
:102E5000DDF8188003F10049C9F30A501AF48063C1
:102E6000A0F2FF3008BF06250F93FDF783FBB5A343
:102E7000D3E90023FDF7E4FBB4A3D3E90023FDF776
:102E80002DFACDE90A01A849A84FA94B4FF0FF3010
:102E900000EA080001EA0901002606430F43002268
:102EA00030463946FDF718FA93A3D3E90023FDF71E
:102EB000C7FB02460B46DDE90A01FDF70FFAFDF7F5
:102EC00059FE0446FDF756FB8DA3D3E900230646C1
:102ED0000F46FDF7B5FB0022964BFDF7FFF9FDF716
:102EE00049FE89A3D3E900230E9039463046FDF709
:102EF000A7FB06460E980F46FDF73CFB84A3D3E9DB
:102F00000023FDF79DFB02460B4630463946FDF790
:102F1000E3F902460B4606460F46FDF791FB3246A3
:102F2000CDE90A013B4630463946FDF7D7F9002284
:102F3000CDE91001804BDDE90A01FDF7ABFC002271
:102F40007E4BFDF7CBF902460B46DDE90A01FDF7A2
:102F5000A1FC00227A4BFDF7C1F902460B46DDE9E0
:102F60000A01FDF797FC3246CDE90A013B460020F5
:102F70004FF08041FDF7B0F902460B46DDE90A014A
:102F8000FDF7ACF902460B46DDE91001FDF782FCC6
:102F90000022664BFDF7A2F90E9B03F2FF360022DA
:102FA0003305FDF74DFBCDE90A0102460B464046CD
:102FB0004946FDF7B7FD40B1DDE90A0100225F4B4C
:102FC000FDF768FCCDE90A01013C04F16303C72B5E
:102FD00034BF042605261AF4006F1DD04EA3D3E992
:102FE000002340464946FDF7B1FD00286CD04CA3B4
:102FF000D3E9002340464946FDF794FD002863D0FD
:10300000AC42B8BF2D1B4FF00006B4BF05F1FF3531
:1030100000254AF4806A34460C9BB3428CBF9F1B48
:1030200000271AF002030E9302D0002E18BF0027CB
:103030003CB140464946DDE90A23FDF72BFC8046BA
:10304000894600220023DDE90601FDF76BFD10B182
:1030500009F1004399462AF400630493039702950B
:10306000CDE900895B460D9A09990898FFF734FD70
:1030700026B31AF0200F00F1010502465B4614BF8B
:10308000452065200999089FB8470523059300232B
:103090000393002C4FF00A03029306F1FF364FEA28
:1030A000D473B8BF6442019304965B4600942A46E9
:1030B00009990898FFF774FC0E9BA3B913B0BDE8FB
:1030C000F08FDDE90689C7E6002DA5D00F9B002B08
:1030D000A2D0013DA0E7441C02465B46202009998E
:1030E000089DA84720460D9B0C9AC31A9A42F2D815
:1030F000E4E700BFAFF3008061436F63A787D23F6F
:1031000071A379094F930A401655B5BBB16B0240C4
:10311000EF39FAFE422EE63F2D431CEBE2361A3F12
:103120000000000080842E41FFFF0F000000F03FF0
:103130000000F83F0000E03F00002C400000244069
:1031400000001840FB799F501344D33FB3C8608BF5
:10315000288AC63F2DE9F04F91B01E460A92B34A25
:103160001A9D1346002918BF034688460B93002476
:10317000307870B90A9B0B9D9C422CBF03F1FF3243
:1031800022460A9B41460020A847204611B0BDE8D0
:10319000F08F252806F1010608D004F10109224626
:1031A0000A9B0B9C4146A0474C46E1E73346002270
:1031B00018461E4610F8011B2B2916D00AD82029C4
:1031C00016D0232917D0A1F1300EBEF1090F57D820
:1031D000002118E02D2905D03029F4D142F0010258
:1031E0000346E5E742F00202FAE742F00402F7E79D
:1031F00042F00802F4E742F01002F1E70C980A26C8
:1032000006FB001130390C911E4613F8011BA1F189
:1032100030000928F2D933782E2B51D17178A1F1E1
:103220003000092842F4806206F101033FD84FF0D4
:1032300000091E4613F8011BA1F13000092830D9FE
:1032400033786C2B46D03ED8682B4AD06A2B52D0AC
:103250003078652800F0568100F29A80472800F007
:1032600051814BD8452800F04D8100F23281224631
:1032700004F101090A9B0B9C4146A047013693E7E4
:103280002A290BD12B68002B05F10401BCBF5B423E
:1032900042F002020C9306460D46BCE700230C9355
:1032A000B9E70A2000FB0919A9F13009C1E72A2969
:1032B00005D12B68023623EAE3790435C0E71E46C0
:1032C0004FF00009BCE7742B01D07A2BC0D142F437
:1032D00080720BE073786C2BF9D142F440720236A5
:1032E000B6E77378682B03D042F080020136AFE76F
:1032F00042F0C002F3E742F40072F7E7622803D11C
:10330000022322F00C0213E005D85828AFD142F076
:1033100020021023F5E7632800F015816428A6D168
:10332000692822F010024FF00A0301D06428E8D186
:10333000570548BF22F00102692802F4007102D04B
:10334000642840F09280002953D0073525F007010A
:1033500001F1080503C9049300230593CB0F0293E1
:1033600000280B46089273F100010C9A0792CDF8E1
:103370001890024602DA424263EB4303CDE9002390
:1033800041460A9B0B982246FFF74AFB04464BE056
:103390006F2801D10823B4E706D8672800F0B2806F
:1033A000C0F097806928BAE7732800F006811BD81F
:1033B00070287FF45CAF082304931023029342F03B
:1033C000210200230592CDF80C9001932B68009305
:1033D00022460A9B0B984146FFF7E2FA05F1040AE0
:1033E000044601365546C3E6752899D0782890D012
:1033F0003DE712F4807F05F1040A19D0296805928F
:1034000000290C9A02934FEAD173B8BF4942049243
:10341000CDF80C900193009122460A9B0B984146EF
:10342000FFF7BEFA554604460136A1E60D2800080E
:1034300012F0400F296814D0C9B2059202930C9A79
:103440000492CB0F00295546CDF80C900193B8BFDC
:10345000494200910A9B0B9822464146FFF7A0FA89
:1034600094E7150648BF09B2E7E781B1073508922E
:1034700004930C9A0792002325F00701CDF81890C9
:103480000593029301F10805D1E9002376E712F4D0
:10349000807F05F1040A09D005920C9A0492CDF8B8
:1034A0000C90029301912B680093B5E712F0400F46
:1034B00029680AD0C9B2059202930C9A049200239B
:1034C0005546CDF80C900193C3E7100648BF89B26A
:1034D000F1E7462808BF42F02002049207350C9A13
:1034E000039225F00703CDF8089003F10805D3E90E
:1034F00000234146CDE900230B980A9B2246FFF7A3
:10350000EBFA43E700F0DF03472B04BF00F0FD00B8
:1035100042F40062452808BF42F0200204920735B9
:103520000C9A039225F00703CDF8089003F10805E3
:10353000D3E900234146CDE900230B980A9B22469C
:10354000FFF73EFC22E712F002030D9328D19B46C1
:103550000C9B04EB0B0A0BF102090BF1010B5B4511
:1035600017D80A9B287805F1040B524641460B9D5B
:10357000A8470D9B0AF1010443B109F1FF39A9EBFA
:103580000A0A0C9A04EB0A039A420DD801365D46EA
:10359000EEE50A9B0B9F524641462020B847D7E7ED
:1035A000A2464FF00109DCE7651C22460A9B0B9CF2
:1035B00041462020A0472C46E3E72B1DB9F1000F20
:1035C0002D680F9314BF4B464FF0FF332B44AB468F
:1035D0009BF8001009B15B4530D112F48063ABEB6E
:1035E000050B0D9302D0CB4528BFCB4612F002034A
:1035F0000E932DD15B46E41A0C99994204EB030219
:1036000003F1010B1DD8A2EB050A0AEB050215F820
:10361000010B30B10D9BF3B109F1FF33B9F1000F8C
:1036200018D10E9B144633B1ABEB020B0C9A04EB92
:103630000B039A4214D801360F9D99E50BF1010B4B
:10364000C6E70A9B0B9F41462020B8475B46D3E75D
:103650002246D8E799460A9B0B9C4146A047D4E7EF
:1036600004F1010922460A9B0B9C41462020A047F9
:103670004C46DBE71FB5034600914FF0FF3203A92C
:103680000248FFF767FD05B05DF804FBCD2A00088E
:103690000368013304D04068431C584258417047C6
:1036A0000120704710B50B6804689C4209D040683F
:1036B0004A68904205D0944203D0181A18BF0120DE
:1036C00010BD002010BD40F30903B3F1FF3F08BF58
:1036D0000130C0F309000430704710B5031F0439EE
:1036E00008305A6851F8044F624043F8042F83426F
:1036F000F7D110BD036833B9426822B98068B0FAC7
:1037000080F0400970470020704708B503681B0D22
:1037100013F4E06306D00430FFF7C4FFB0FA80F082
:10372000400908BD184608BD836E1A6A436DD31A56
:103730001944B1FBF2F302FB1311836D994210B5EA
:103740000BD24C09426E012301F01F0103FA01F173
:1037500052F824300B4342F82430002010BD000002
:10376000164A036830B511F0805F154C81EA0305F5
:1037700018BF144625421FD043F3090401341BD05F
:1037800001EA02040F4A1A4042F09F4242F4E0026A
:10379000944211D00A0D02F4E064B4F5806F09D1AF
:1037A000C3F38924C1F389218C4203D352B203EBC2
:1037B00082230360002030BD012030BD00FCFF7F6C
:1037C00000FC0F7000FC0F00024608B50846FFF72A
:1037D0007AFF136818441060002008BD03680133A5
:1037E000036000207047836E1B6B10B5044613B94D
:1037F000C06803F06BF9A36E5B6B13B9E06903F06B
:1038000065F9A36E9B6B13B9606E03F05FF900203E
:1038100010BD03681944C1F30903003318BF012325
:1038200021F0004141EAC371016070472DE9F04F7A
:10383000904685B002680393DDF83890136A0290D1
:103840004B458A460F9C119E40F29B80D269A3197A
:10385000934200F29680109F0EB9304664E0BAF1B0
:10386000000F40D0DAF8003099453CD1DAF8045026
:10387000DAF8083005EB030BA34534D9A54211D87B
:10388000ABEB040BB345DAF80C1028BFB346651B4D
:1038900038465A46294403F030F95F445C44A6EBAD
:1038A0000B06D9E72D1BB54228BF3546D8F80030A6
:1038B00099451ED1D8F80410D8F808300B449C4222
:1038C00017D28C4211D31B1B9D4228BF1D46D8F82E
:1038D0000C30611A2A461944384603F00EF92F4479
:1038E0002C44761BB8E73546E0E7091B8D4228BF1C
:1038F0000D46039B9E42029B186818D34369B4FB94
:10390000F3F203FB124292B99E4210D3B5FBF3F2DD
:1039100003FB1253ED1A0095D0F804B03B46224643
:103920004946D8470028DAD005B0BDE8F08F416994
:10393000039DB4FBF1F24B1E2B44234401FB1242C6
:10394000B3FBF1F501FB15315B1AC169C8F80090B2
:10395000A21A8B4294BFC2EB0303C2EB0103816A3C
:10396000C8F804208B4228BF0B460093C8F80830E3
:103970004568D8F80C304946A84700283FF46CAF9A
:10398000D2E76FF05300CFE730B5134687B0026837
:10399000054604AC0820916E03900294586801908B
:1039A0001B680093CB6902F1680002F11001FFF778
:1039B0003DFF30B9291D2046FFF774FE003018BFC7
:1039C000012007B030BD00002DE9F04F95B017463B
:1039D0000B931368826E126A934206460D4680F07E
:1039E000DE8179688A4240F2DA8100F168020021C2
:1039F000059204240EAA02920093024603940191B8
:103A0000234605980E910F91FFF710FF10B110F1AA
:103A1000540F10D103940FAB0024029301947B68E0
:103A200000933246042321460598FFF7FFFE38B184
:103A300010F1540F0BD00446204615B0BDE8F08FAE
:103A40000E9B0F9CE41A002CD4BF0024012457F8CD
:103A500024302B6084F001030A9357F823306B6005
:103A600014AB03EB8404022254F8183CAB6000232F
:103A7000EB6009924FF0FF340893B94A92E80300D3
:103A800010AB83E80300042205F108014FF0FF307A
:103A900002F0A4FF002304902746079306934FF0FB
:103AA000FF399A464846FFF70EFE042203928244ED
:103AB0002A68B36E00920DF1300BCDF808B0CDF846
:103AC00004A0DB69059832460021FFF7AFFE80466F
:103AD00038B110F1540F40F024819DF82030AB75BF
:103AE00022E059460422049802F078FF0C9B0490CF
:103AF0001BBA89EA030BBBF1000FCDF830B02EDA08
:103B00004FEA195A0AF4E06ABAF5A06F0AD1B36E07
:103B1000EA689B69B2FBF3F803FB1828B8FA88F847
:103B20004FEA581885F81680EB68002B00F01E81CC
:103B3000294606F13C00FFF7E8FD002800F0FA8076
:103B4000F36BC4F38922C3F389239A4240F0EB80DC
:103B500044F000441F9B002B40F0EE80F7E05846F5
:103B6000FFF7B1FDB36EDB6950449842B5D84FEA18
:103B70001B5202F4E062B2F5A06F44D04FF004098A
:103B80000DF134080C98FFF79EFD814518D20122F3
:103B9000039209EB0A020192B36E2A680092CDF8F3
:103BA0000880DB69059832460021FFF73FFE0028B8
:103BB00061D010F1540F7FF43EAF9DF82030AB750B
:103BC0000C9B1A0D12F4E0615ED1069AC3F38923AF
:103BD0009A4201D8013306930C991E9B0B9A4B40D5
:103BE00013420DD12B6812930AF10403139312AA06
:103BF0002198209B9847002814DB0C9B7CD11F4602
:103C00003B46274633E0042203920DAA02920AF1B2
:103C1000040201922A680092414632460598FFF755
:103C200005FE20B110F1540F3FF457AF03E70D9B91
:103C3000049A9A427FF451AF0C98030D8BEAC37B30
:103C4000F36A5340F362FFF73EFDBDF81830AB82D4
:103C5000109BAB61119BEB6150449DF81C30EB75E0
:103C60004FF0FF32E860C5F810B03B4604923C4686
:103C7000D9461F4616E701224146049802F0AEFEDF
:103C800009F1010904907DE7B1F5806F1AD1069919
:103C900052B2114489B206913249394041F09F41F4
:103CA00041F4E0018B4202D147F0004794E7781CD1
:103CB00092D0C3F38923C7F389218B428CD807EBB9
:103CC000822789E7B1F5C06F86D102F0010308228F
:103CD000039210AA02920AF10402019207932A6841
:103CE000B36E0092DB69059832460021FFF79EFD16
:103CF00054307FF471AFF0E61B4983EA07020A42B1
:103D00000CD002287FF47CAFC7F38922C3F389214A
:103D10008A42FFF475AF43F0004771E74FF0FF3779
:103D20006EE7044688E6611C3FF414AF9A4288BFF0
:103D3000A4F580641F9B3BB1AA8AC4F389239342F4
:103D400028BF13461F9A1380002CBFF675AEAB8AAE
:103D5000C4F38924A34294BF00246FF001046BE6EE
:103D60009079000800FC0F0000FCFF7F0A9914A85E
:103D700000EB810195E80C0051F8181CA960099925
:103D80002B6001396A6009917FF477AE0549019192
:103D900000920549054840F2E63202F06DFF6FF0EF
:103DA000530449E69E7D0008207F0008327F00080A
:103DB0002DE9F04701230024DFF86880DFF86890E0
:103DC000DFF868A0946188B006460F461546D361B7
:103DD00005F118021046FFF75BFC10B16FF001000F
:103DE0001AE0B36E1B6AB4EB530F18D23B6806930C
:103DF0007B68079305AB03930190CDF80880CDF85D
:103E0000009053462946304601340596FFF7DCFD05
:103E10000028DDD0831CDBD008B0BDE8F0876FF050
:103E20005300F9E78939000808000020FF03F07FFC
:103E30001FB500230393029301934FF0FF330093C8
:103E4000FFF7C2FD05B05DF804FB2DE9F041012349
:103E500000240746884615469461D36102F118068E
:103E60003046FFF715FC18B16FF00100BDE8F08196
:103E7000BB6E1B6AB4EB530F0ED241463046013481
:103E8000FFF710FC30B1324629463846FFF7D0FF25
:103E90000028E5D0BDE8F0816FF05300FAE700009C
:103EA0002DE9F04F95B092461D46BDF88820209B25
:103EB0000D92BDF990B0BDF88C200E92DFF87C9188
:103EC0001E9EC3F389220B924FEA8B220746884637
:103ED0000C9203EA09092846FFF7F5FBD8F80C30E5
:103EE0000AEB00049C4250D211AA04230292D8F893
:103EF00000200092039301943A46002107F16800E4
:103F0000FFF794FC00283DD1119B1BBA5D40D8F807
:103F10000030129345F00045231DA24611951393DE
:103F200012AC119B219A534013EA0903D3D10B9A87
:103F3000002A35D11199C1F30A53002BCBD040F29E
:103F4000011293424DD1C1F30903269A0892C1F39D
:103F50008921259A0792C91A5A1C594404934FF093
:103F6000005309B2059203930022324B069102934B
:103F7000019200924FF0FF3321463846FFF790FF41
:103F80000028A8D015B0BDE8F08F1F9B002B4FDD97
:103F9000336811931F9B7468013B08361F93C0E779
:103FA00011AA08920693244A05930493039302935B
:103FB0001F9B0792019300962B4652464146384676
:103FC000FFF76EFF0028DDDB85D1119B0D9AC3F34F
:103FD00089239A423FF67FAF0E9A9A427FF67BAFD3
:103FE000A8E7B3F5817F1CD100231199C1F3090221
:103FF0009342BFF470AFA26820780F93C1F3892178
:10400000594442EA812100F540706268259B41EAEB
:104010000051269898470C340028B3D10F9B0133E8
:10402000E3E70C9B269819442246259B9847A7E76F
:104030000020A7E700FC0F60613700080000F07F58
:104040002DE9F04F89B007469A463C300B6907933B
:1040500091468846CE68FFF758FB4FEA992300281F
:1040600000F08180C3F309044CB1FC6B3F4AC4F3F8
:104070008924CAF38920844294BF14460024C3F3E0
:104080000903059307F1680B079D2846FFF71BFB03
:10409000031D9E4232D307AA361A04230292D8F88F
:1040A00000200092039301963A4600215846FFF7FC
:1040B000BDFB28BB079B1BBA6B4023F00043079353
:1040C000059B1BB32A0D02F4E063B3F5806F1DD18D
:1040D000AAEB0403C3F38920C5F38921884215D3D1
:1040E00023F07F4323F4700323F47F7323F003034F
:1040F00043F0804343F480139D4204D16FF00100EC
:1041000009B0BDE8F08F52B204EB8224AAEB04019F
:10411000694011EA0901B7D145F309030133EDD034
:10412000149BC5F30909994528BF9946139B02932F
:10413000129BCDF80C9004331E44D8F80030009345
:1041400001964B463A465846FFF770FB0028D7D1F8
:10415000149BA3EB0902139B014603EB090002F039
:10416000D7FC2819CCE7044689E700BF00FCFFFF15
:104170001FB5C3F309040294069C01940024009423
:10418000FFF75EFF04B010BD30B587B003AC154635
:104190000094084B084AFFF7EBFF002804DA831C61
:1041A00008BF002007B030BD28462146FFF795FA2A
:1041B0000020F7E70C00F07F0000F07F2DE9F04FC2
:1041C0008DB080460E460692146805931BB1059A81
:1041D00040F2FF331380D8F82030B361DFF830B1FC
:1041E000D8F82430F3614549204602F08DFD2518AA
:1041F00082464249284602F075FD0128074605EB34
:10420000000905D114F80A202E2A0AD14C46EAE703
:10421000022806D102463A49284602F05FFC0028EF
:10422000F4D04C464FF0010A3449484602F06CFD88
:1042300081443249484602F055FD034698B10228B0
:104240000DD1024607902E49484602F047FC079BD5
:1042500028B9BAF1010A04D109F10204C3E70AF14D
:10426000010A9944E0E72A78002A3FD0069B4FEAEA
:104270001B52022A1D603DD1CBF3892340F2FF324D
:10428000934206F1180924D10DF1240A2F21284662
:1042900002F01AFD0028059B1A4A029218BF00235B
:1042A0000193CDF80CA000974FF0F0434A463146F9
:1042B0004046CDF824800A950B97FFF785FBB0F1B7
:1042C000000B13DB8FD1F37D002BDFD16FF0010BDF
:1042D0000CE00D4ACDF8009042EA832331460B4AA8
:1042E0004046FFF745FFB0F1000BCDDA58460DB060
:1042F000BDE8F08F6FF0130BF8E700BF677F000891
:10430000097A0008174A00080800002000FC0F7016
:1043100000FC2F0010B50C46826AE068FF2102F015
:10432000F7FB4FF0FF33236010BD38B504460B6B2D
:10433000A1660D46002B2FD0C3606B6B002B37D0CE
:10434000E36128462146FFF7E5FF04F11001A06E66
:10435000FFF7E0FFA56EAB6B002B30D06366EB6B15
:10436000002B33D0E3662B6C002B31D023676B6CB2
:10437000002B30D0002063674FF0FF33236263626D
:10438000A062E062E0632064606420636063A06315
:10439000A064E064206538BD886A02F08FFBE060AD
:1043A0000028CAD12046FFF71EFA6FF00B0038BD77
:1043B000A86A02F083FBE0610028C2D1F2E7E86A54
:1043C00002F07CFB60660028C9D1EBE7FF23C9E758
:1043D0006FF00043CAE740F2FE33CBE7F8B5C5699A
:1043E0000E68083D0F46B6FBF5F080B10138FCF7CA
:1043F00021FC841CA6EB8404B4FBF5F42046FCF7F6
:1044000019FC04FB1565A5EB80053D602046F8BD51
:104410002DE9F04788B01E46109BDDF844808946A0
:10442000074608A9013B41F80C3D57F8680F924632
:10443000FFF7D4FF054631461298C04780B97DB1D9
:1044400005F00104C4F1020406AAA300029201903F
:1044500003930096524649463846FFF7E7F988B17C
:1044600008B0BDE8F08706991298C04701230028DC
:10447000F6D1B342F7DB08AB03EB86062D1B56F8EB
:10448000086CD8E70346661EF3E72DE9F04F89B0C4
:10449000054689460592139F43B94FF0FF323A60B3
:1044A000149A0020136009B0BDE8F08F08A9013B01
:1044B00041F8043D806EFFF791FF12A9064655F8BA
:1044C000680FFFF78BFF4FF0040A80460DF1140BC5
:1044D000B045059902D33960129BE1E7A6EB0804C9
:1044E000B4FA84F396FAA6F4B4FA84F2C3F11F0482
:1044F000944228BF1446A3008DE80A00CDF80CA012
:10450000CDF808B004234A4600212846FFF78EF96B
:104510000028C8D1012303FA04F4361BD8E70000B1
:104520002DE9F04F87B01546826E119C139ED2691B
:104530008A46A119914280464BD8129FDFF898B065
:1045400003F1FF390EB9304640E02B68E8680233CA
:1045500016D16968AB680B449C4211D28C420FD3D0
:104560001B1BB34228BF3346611A1A460144384622
:10457000059302F0C2FA059B1F441C44F61AE1E7BA
:10458000D8F868E0DEF81410B4FBF1F26FF0010324
:104590002B6009EB0103234401FB1242B3FBF1FC46
:1045A00001FB1C315B1ADEF8281001908B4228BFFA
:1045B0000B46A21A6A60AB6002930092109B5A46A7
:1045C00051464046FFF73CFD0028BBDA07B0BDE886
:1045D000F08F6FF05300F9E700FCF7FF2DE9F04F83
:1045E00087B09946119D129B0E469046EF182C46B7
:1045F00000F1680A0DF1170BBC4201D100201BE04D
:1046000001220392109ACDF808B0521B2244A8EB65
:1046100004030192CDF800902B443246002150460D
:10462000FFF704F940B914F8012B9DF817309A42AE
:10463000E2D094BF0220012007B0BDE8F08F2DE941
:10464000F0430D46096898468B1C012B85B0064641
:10465000174630D9806EAC6882691444013CB4FBC3
:10466000F2F302FB1343E41A0094D0F80890EB68CD
:104670006A68C847814630B9B8F1000F07D12946AA
:10468000B06EFFF747FE484605B0BDE8F0834FF037
:10469000FF333B60EB6801936B68009302942B68D7
:1046A000224639463046FFF799FF002806DBE6D060
:1046B0006FF05309E7E74FF00009E4E78146E2E7CE
:1046C0002DE9F74F0D9D0F9E0E9F80460C4691469B
:1046D0009A464FF0000B0EB9304630E00C9A236832
:1046E0009342D8F868202DD1606885422AD3936A16
:1046F00003449D4226D25B1BB34228BF33461A4671
:104700000193E368281A3946184402F0F6F9019B30
:10471000A2681D441F44F61A6368EB1A934238BF1F
:104720001346D8F86820A360926A9342D3D15346C7
:104730004A4621464046FFF782FF0028CBD003B00F
:10474000BDE8F08F92690C9B2360B5FBF2F302FB8E
:104750001353EB1A6360C4F808B0BCE7F0B585B03A
:104760001D46029203934B6801930B6800930C461D
:1047700017460023024600F11001FFF7A1FF06468D
:1047800040B92A463946E06802F028F96368E060DB
:104790002B446360304605B0F0BD2DE9F04F8046F4
:1047A00089B01046174699460C46FEF78CFF4B68B9
:1047B0004A6903449342064642D88B6827F0004A70
:1047C00008AA8AEA03031BBA42F8043D40460423C0
:1047D000FFF7C4FF054678BB002FA6F1040622DAD6
:1047E00008F16803074605930DF11B0BB74221D270
:1047F00001230393D9F80430CDF808B03B4401936A
:10480000D9F8003000934246F31B00210598FFF7CA
:104810000DF8C0B901235A4621464046FFF79EFFD6
:1048200088B90137E2E733464A4621464046FFF75A
:1048300095FF40B9C4F808A0284609B0BDE8F08F3C
:104840006FF01B05F8E70546F6E713460A4603C86E
:10485000FFF7A3BF2DE9F04F8DB04B680593CB68F0
:104860000693836E9A69059B9E180736B6FBF2F392
:1048700002FB1363F61AA6F1080307460D4640F241
:10488000FE3B07936C68B44223D339464FF0FF33A5
:1048900041F8103B3A4600233846FFF7D0FE8046E9
:1048A000002840F0B180B86E036998478046002820
:1048B00040F0AA80059B2C6903F1040907F1680305
:1048C0000793B44280F0A0804FF0FF3A09F1040B47
:1048D0007FE004F1040AA6EB0A045C4594BF54444B
:1048E0000AEB0B04B44203D2079B9C4228BF1C4630
:1048F0000CAA4FF0FF3342F80C3D042302922A68C1
:104900000092039301943A46002107F16800FEF7F4
:104910008DFF804610B110F1540F75D1099BE868E6
:104920001BBA6FEA0309A4EB0A044FEAD97344F4F3
:104930007F2403F5A06344F4406444EA0354AB6865
:1049400009945C4023BA0CAC042244F8083D21468B
:1049500002F044F8082303936B6801932B68E86026
:104960000B900093029400233A4607F11001384659
:10497000FFF7A6FE8046002846D1099BC3F3090233
:10498000111D09F000496A6889EA03030A44AB6013
:104990004FF0FF336A60EB6074E7059B9C4202D1E5
:1049A000069B9A452DD1012303930AAB02932B68F2
:1049B00000930194ABEB04033A4600210798FEF7FD
:1049C00035FF00BB504601220AA902F007F8013466
:1049D00082465C45E1D3BAF1000F19D1A6EB090478
:1049E00040F2FE339C4294BF4C4409EB0304A642C0
:1049F00004D9A6F108039C4228BF1C4604F104090F
:104A00005FE76FF05300804640460DB0BDE8F08F81
:104A10006FF05308F8E730B50446C1F30905A36801
:104A2000216885B0AB4228BF2B46104602931A4638
:104A3000636801934368009303680846FFF7CEFD5F
:104A400028B9A368AB4202D02CBF0220012005B0D8
:104A500030BD000073B50B4D0B4E0C460346294686
:104A60008DE8500040F61E42084802F005F9009615
:104A7000636B074840F62142294602F0FDF8606B5F
:104A800002B070BD207F00089E7D0008AD82000846
:104A9000D382000837B5154D0C4603468DE830002B
:104AA00040F632421249134802F0E6F8236B9B03AA
:104AB00012D5626BE36A0095934238BF13460C49E6
:104AC0000D4840F6374202F0D7F8606BE36A98422F
:104AD00038BF184603B030BD0095E36A0449064864
:104AE00040F63A4202F0C8F8E06AF3E79E7D00081B
:104AF000207F0008188200083E82000873B50D4D23
:104B00000D4E009603462946044640F6E5620B48E2
:104B100002F0B2F82046FEF766FE00960446034611
:104B200040F6E7622946064802F0A6F8204602B0A1
:104B300070BD00BF207F00089E7D00080988000826
:104B4000298800082DE9F04FA7B0DFF84482CDF89E
:104B50004C804B6C12930B6C1193CB6B10938B6B43
:104B60000F934B6B0E930B6B0D93CB6A0C938B6A6D
:104B70000B934B6A0A930B6A0993CB6908938B6971
:104B800007934B6906930B690593CB6804938B6875
:104B900003934B6802930B680193044603460D464A
:104BA000009140F664627049704802F065F8294649
:104BB0002046FFF7BAFB4646074660B1CDF80080B5
:104BC000034640F667626849694802F055F838467E
:104BD00027B0BDE8F08F014620221EA801F098FF03
:104BE000DFF8B091DFF8B0A1DFF8B0B10123259371
:104BF000B84624A8FEF74CFD002832D004F120006E
:104C0000FEF746FD002868D104F130052846FEF77E
:104C100071FD58B9A36B0193636B00930296236BEC
:104C20005149544840F6D36202F026F8236B03EB57
:104C3000D373236395E8070004F13C0383E807007E
:104C4000A26EE06AD169B0FBF1F301FB1303126AB3
:104C5000636500232266A365E365009640F6DB6288
:104C6000B1E7A36E1B6AB8EB530F79D208231793F1
:104C700015AB0393404B01900093CDF808A03F4B38
:104C8000159424AA1EA92046CDF85890FEF79CFE44
:104C9000051E08F1010856DB4BD045F30905013527
:104CA00047D01E9B23621F9B636218AB0093334A5D
:104CB0005B461EA92046FFF75BFA051E43DB189AE8
:104CC000130C022B91B20BD092B227492C480092C0
:104CD000019640F6996201F0CFFF6FF0150532E0C2
:104CE0000029F1D11B9B53B1E26E934206D98DE8A6
:104CF00044001D49234840F6A262ECE7E3661C9B92
:104D000053B1226F934206D98DE8440016491E48DC
:104D100040F6AD62DFE723671D9B53B1626F93429C
:104D200006D98DE844001049184840F6B862D2E729
:104D3000636704F130021EA92046FFF725FA0546F5
:104D400000283FF456AF2046FFF7D8FE00962B46CA
:104D50004FF46E620449064801F08EFF2F4636E795
:104D60006FF05305EFE700BF207F0008B385000810
:104D7000ED860008D28700080800F00F00FCFF7FD6
:104D8000168700083F87000870870008A187000881
:104D90009E7D00080D870008174A000818001020A3
:104DA0002DE9F04F8FB004460D4616460021202213
:104DB00006A89946DFF834A101F0AAFE01230D935D
:104DC0004FF000080CA8FEF763FC20B1A76A002F83
:104DD00057D1384643E0A36E1B6AB8EB530F7FD21E
:104DE0000C99304608F10108A847002837D10D99E1
:104DF0003046A847002832D10CAA06A92046FFF762
:104E000017F860BBDFF8E8B00746BDF82C20BBB24E
:104E10009A42D7D9344B04AA03EA8723009243EA83
:104E20000B03524606A92046FFF7A2F9002803DA31
:104E3000831C14D10137E8E7000D40F202229042B2
:104E400083B20FD1059B002BF4D08DE86800224679
:104E5000049B00212046FFF7DBFA0028EAD00FB0C0
:104E6000BDE8F08FB9F1000FE4D0B3F5007FE1D1D8
:104E700004993046A8470028F1D105993046A84743
:104E8000EBE7BB79012B01D03F68A0E73B6B03F454
:104E90008813B3F5803F14D03B6B03F49013B3F544
:104EA000003FF1D17B6B002BEED08DE868002246ED
:104EB000BB6B07F140012046FFF7AAFA0028E3D0B8
:104EC000CDE7FB6A002BE7D08DE868002246BB6A7D
:104ED00007F140012046FFF79BFA0028DCD0BEE72F
:104EE0006FF05300BBE700BF00FCFF0300FC0F7036
:104EF000080000202DE9F3413B4D04460E460127F2
:104F0000A36DE26D216E9A420ED1626D00293BD1F4
:104F10003649009113443649364840F2EF1201F009
:104F2000ABFE6FF01B0026E00139501C21664FEAF2
:104F3000521E616EE06551F82EE002F01F0007FA84
:104F400000F010EA0E0FDCD1636D1A44A36E186AEC
:104F5000B2FBF0F300FB13223260A66D0125E36D76
:104F6000B3423FD05A0903F01F0051F8222005FA3E
:104F700000F0104002D102B0BDE8F0810133E365DA
:104F8000236E013B2366EAE7A06ED0F820E01344CD
:104F9000B3FBFEF20EFB1233C26A63654FF00008EA
:104FA000D3008B4294BFA365A165C4F85C804146E1
:104FB000606E01F0ADFD0123224629462046FFF731
:104FC000EFFE00289CD0A26EE56AD169B5FBF1F333
:104FD00001FB13536365136AC4F85880C4F85C80FE
:104FE0002366C8E70020C6E7293700089E7D000831
:104FF000207F0008147E00087FB50C460431064669
:10500000FFF778FF054640BB21463046FFF772FFA9
:10501000054610BB2246042342F8080F029222687C
:105020000190009201460393324606F16800FEF7B4
:10503000FDFB10B110F1540F12D1A368013323F01E
:105040000103A36004234FF0FF32E36000232261D9
:10505000A382A261E261A375E375284604B070BD26
:105060000546FAE72DE9F04FDFF800B187B00446B6
:105070000D4605A92046FFF73DFF064640BBA06E42
:105080000599C36898470646F8B9074605F1400AEE
:105090004FF00108EB6B9F421ED3A36EE1699A6A41
:1050A000E86C01F02AFD23692B6463696B64A369D2
:1050B000AB6404F11001A06EFFF72CF9059BAB6304
:1050C0002B6B43F400332B6302E010F1540F3AD002
:1050D000304607B0BDE8F08F2A6BCDF80C800DF19B
:1050E000130912F4801FA3EB0703CDF80890019772
:1050F0001ED0AA884BEA8222009205F1080152468E
:105100002046FFF70DFA88B9059B0093CDF80C8077
:10511000CDF8089001970123224604F110012046A2
:10512000FFF7CEFA68B110F1540F0CD00646CFE766
:10513000AA6B00925146224604F16800FEF776FB06
:10514000E1E70137A6E7064B009340F64B22059BAB
:105150000449054801F090FD4FF0FF33236188E7D3
:105160009E7D0008207F00080881000800001020B4
:105170002DE9F04FDFF8D0A20C468FB017469846C5
:10518000064603468DE8900540F63A32AB49AC48F6
:1051900001F072FD236B13F4802FD1460DD0214610
:1051A000304600F0D7F9054638B1CDF800A00346E7
:1051B00040F64532A149A34852E0236B1A0504D5B5
:1051C000E26A616B914238BF6263D4F834A0326FF7
:1051D00008EB0A0191420FD9CDF800906FF01A0345
:1051E0004FF435629549974801F046FD6FF01A0576
:1051F00028460FB0BDE8F08F13F4003B17D0236BA7
:10520000DB0230D4CDF810800597049A236B002A76
:105210004FD123F4002323638B4B009340F6B63227
:1052200043468649894801F027FD4546E0E7E36AA1
:105230009A45E4D96363636B9A45E0D901230DF184
:105240002B02214630468DF82BB0FFF791FF051E4B
:10525000F1DA7A497D48CDF800902B4640F65C3271
:1052600001F00AFDC4E7656BE36AB26E08EB050165
:10527000906A994238BF194640F2FE3ED3697045A4
:105280004FEAD30328BF7046834228BF03469942A2
:10529000B8D9136AE563214633663046FFF7E2FE6C
:1052A000236B0546002840F0458123F480132363D7
:1052B000A8E713F4003204D0B16EE06BC9698842EC
:1052C00052D113F4801F636B40F00F8104F1400B47
:1052D000F2B9EBB104F13C020292013B04F1380255
:1052E00001920093A26AE36A59463046FFF7CDF86F
:1052F000054648B1236B43F400232363524B0093CC
:1053000040F67B32034655E75946B06EFFF702F888
:10531000B36E1B6A3366A36B0793636B06930BA98B
:105320003046FFF7E7FD054648B9B06E0B99C368F4
:105330009847054668B115F1540F00F0C980236BFA
:1053400043F400232363404B009340F68A322B46FC
:1053500030E7069B002B30D10B9BA363069BE363D6
:10536000236B43F400332363B36EDF69E36BFF1AEF
:10537000049B9F4228BF1F4604F14009059B0293EE
:10538000E36B0193A36B00930397012332464946D5
:105390003046FFF795F90546002800F0BB8010F174
:1053A000540F00F0A580236B43F400232363264BA6
:1053B000009340F69F320346FCE6069BB06E0EA9B2
:1053C000013B41F8083DFFF709F8B26E0C9BD2692A
:1053D000013393420C933BD006F16803A94608932E
:1053E0004FF0010A0DAF0C9B4B4502D80B9AA263FC
:1053F000B5E7079A0092CDF80CA00297CDF804907B
:10540000A3EB0903324600210898FEF70FFA054680
:10541000002894D10B9B0093CDF80CA00297CDF8F7
:1054200004900123324659463046FFF749F90546B4
:10543000002880D109F10109D5E700BF207F0008CD
:10544000F8820008288300089E7D00084D8300082C
:10545000013090FAA0F0B0FA80F30DF1380908930A
:1054600003F1010A079B49F8043D2F46BB0009934D
:1054700004230393BB0001930B9B0093CDF808908A
:105480000123324659463046FFF71AF90D9B05466F
:1054900000287FF450AF089ABA4207D10137BA45C5
:1054A000E4D80B9BA3634FEA8A0358E704220392D4
:1054B000099A019200930146CDF8089004233246E0
:1054C00006F16800FEF7B2F905460028E6D036E797
:1054D0001D4B009340F61B120B9B1C491C4801F00E
:1054E000CBFB4FF0FF33236419E76FF001027EE737
:1054F00021463046FFF7B6FD054600283FF43EAF93
:10550000236B43F4002323630F4B009340F6A83230
:1055100003464FE6636B3B446363E36B3B44E363E7
:10552000059B3B440593049BDB1B0493B36E1B6AF2
:1055300033666AE643F400232363CDF80090034604
:1055400040F66A3236E600BF9E7D0008207F0008E4
:10555000088100082DE9F0430B6B0C46590399B004
:10556000054608D5DA0258BF4FF0FF3223F48023F6
:1055700058BF22642363216B11F4003039D011F439
:105580008011666B4FD1542203A801F0C1FAA36ABF
:105590000D93E36A0E932D4B0F9395E80F0013AF15
:1055A00087E80F0010964FF0FF372F60626BE36AB9
:1055B0009A4221D3DFF89C90DFF89C80244F01238E
:1055C0002A4604F140012846FFF739F880B310F16C
:1055D000540F0ED14146CDF80090A36B40F69822AF
:1055E000384601F049FB21462846FFF73BFD0028DD
:1055F000E5D019B0BDE8F08301230DF10B0203A93A
:10560000284600F02BF80028F3DB01230DF10B02F4
:1056100021462846FFF7ACFD0028EADB2B68013362
:10562000C4D01397C1E7E36AB3422CBF63636663D8
:10563000A36BA362636BE362236B666323F40033A3
:1056400043F4803323630020D3E700BF0100200030
:10565000088100089E7D0008207F00082DE9F04F9A
:1056600087B00C461646DFF88491029307461D4624
:10567000CDF80C9003468DE8500040F6EA225649DA
:10568000564801F0F9FA236B13F4003FC8460FD0D7
:1056900021463846FFF75EFF834648B1CDF80090BB
:1056A000034640F6F5224C494D4801F0E5FA0EE07C
:1056B000636BE06A83420ED3CDF80080002340F68E
:1056C000FC224549464801F0D7FA4FF0000B5846F6
:1056D00007B0BDE8F08FA0EB030BAB455B4628BFDE
:1056E0002B460593994604F1400AB9F1000F0BD1FE
:1056F000CDF80080059B38493A4840F6333201F036
:10570000BBFADDF814B0E2E7236B5A0304D5BA6E96
:10571000E16BD269914225D113F4801F636B19D1DB
:1057200004F13C02029204F1380201920093A26A51
:10573000E36A51463846FEF7A8FE054670B10346B7
:10574000CDF8008040F60C322349254801F094FA48
:10575000AB46BCE76FF00102A263E363236B43F443
:1057600080232363BB6EE26BDB69216B02969D1A7B
:105770004D4528BF4D4611F480110395019212D07A
:10578000A288194941EA8222009204F10801524696
:105790003846FEF7C5FE8346A0B1CDF8008003462B
:1057A0004FF432627FE7A26B009207F16800524625
:1057B000FEF73CF8834628B1CDF80080034640F65A
:1057C000283270E7636B2B446363E36B2B44E36322
:1057D0002E44A9EB050988E7207F00089080000887
:1057E000BF800008E3800008000010209E7D0008B4
:1057F0002DE9F043DFF89C9085B00D4616461F4614
:105800008046034640F6BD321E491F488DE8E0023F
:1058100001F032FA29464046FFF79CFE4B4604460B
:1058200050B1034617491948CDF8009040F6C332ED
:1058300001F022FA204610E097B93446D8F87020DB
:10584000944216D9009340F6D3326FF015030D49F8
:105850000E4801F011FA6FF0150005B0BDE8F083B5
:10586000012F6C6B01D13444E8E7022FE6D1EC6ADA
:10587000F9E700936C63234640F6D93201490448A6
:10588000D6E700BF207F0008A0810008CF81000874
:10589000F38100089E7D000873B5144D0091044605
:1058A00003460E4640F6264211490195114801F083
:1058B000E3F9002320461A463146FFF799FF041EFC
:1058C000009509DA234640F6294209490A4801F0C1
:1058D000D3F9204602B070BD002340F62D420449A2
:1058E000064801F0C9F90020F4E700BF9E7D0008DA
:1058F000207F00082B810008538100087A8100086E
:1059000030B585B0134D144900950446034641F265
:105910008F02124801F0B0F904AA002342F8043DB6
:1059200020460F49FFF73CFA00950446034640B174
:1059300041F2930208490B4801F09EF9204605B058
:1059400030BD41F297020449064801F095F90398E9
:10595000F5E700BF9E7D0008207F000871850008E4
:10596000DD370008918500082DE9F04FA5B0DFF87C
:1059700054B30B930B680C93BDF8BC804B68BDF817
:10598000C0A00A9204460E460D934FF00009AAEB00
:105990000807012F00F38580A36EB2685B6A0132AD
:1059A000002BB26040F3D180013343F00103B2FB1E
:1059B000F3F103FB1123002B40F0C78001250EA952
:1059C00030460E930F95FDF76DFE0746002840F018
:1059D00058812046FFF794FF051EC0F2B080A36EE9
:1059E0001B6AB5EB530F1CD2AF4B00934FF4C06250
:1059F000B368AE49AE4801F03FF92E9B0093CDF855
:105A000008A0CDF804800B9B0A9A3146204600F08E
:105A1000A5FF0546002800F09A8010F11C0F40F009
:105A20008E80A06E71681C9100231D932093C36922
:105A30004FF0FF3B083B2193CDF878B0CDF87CB018
:105A4000C36898470546002800F0848015F1540F7C
:105A500075D14FF000094FF0FF332361B9F1000F0A
:105A600008D1914B009340F2956273688F49914839
:105A700001F002F90023012712A93046129313976F
:105A8000FDF710FE002840F0FE80874B009340F2A7
:105A90009B6273688549884801F0EEF86FF01B053A
:105AA0004DE024AB002243F8209D0893834B0793DD
:105AB000C8F100031BB206930B9B01930A9B009352
:105AC000CDF814A0CDF81080CDF80C90CDF808B02A
:105AD0004FF0FF332E992046FEF7E2F9054670BBE2
